{
  "_format": "hh-sol-artifact-1",
  "contractName": "NFTicket",
  "sourceName": "contracts/NFTicket.sol",
  "abi": [
    {
      "inputs": [
        {
          "internalType": "string",
          "name": "_eventName",
          "type": "string"
        },
        {
          "internalType": "string",
          "name": "_eventDescription",
          "type": "string"
        },
        {
          "internalType": "uint256",
          "name": "_eventDate",
          "type": "uint256"
        },
        {
          "internalType": "string",
          "name": "_eventVenue",
          "type": "string"
        },
        {
          "internalType": "uint256",
          "name": "_royaltyCap",
          "type": "uint256"
        },
        {
          "internalType": "uint256",
          "name": "_maxPrice",
          "type": "uint256"
        },
        {
          "internalType": "address",
          "name": "_royaltyRecipient",
          "type": "address"
        }
      ],
      "stateMutability": "nonpayable",
      "type": "constructor"
    },
    {
      "inputs": [],
      "name": "AccessControlBadConfirmation",
      "type": "error"
    },
    {
      "inputs": [
        {
          "internalType": "address",
          "name": "account",
          "type": "address"
        },
        {
          "internalType": "bytes32",
          "name": "neededRole",
          "type": "bytes32"
        }
      ],
      "name": "AccessControlUnauthorizedAccount",
      "type": "error"
    },
    {
      "inputs": [
        {
          "internalType": "address",
          "name": "sender",
          "type": "address"
        },
        {
          "internalType": "uint256",
          "name": "tokenId",
          "type": "uint256"
        },
        {
          "internalType": "address",
          "name": "owner",
          "type": "address"
        }
      ],
      "name": "ERC721IncorrectOwner",
      "type": "error"
    },
    {
      "inputs": [
        {
          "internalType": "address",
          "name": "operator",
          "type": "address"
        },
        {
          "internalType": "uint256",
          "name": "tokenId",
          "type": "uint256"
        }
      ],
      "name": "ERC721InsufficientApproval",
      "type": "error"
    },
    {
      "inputs": [
        {
          "internalType": "address",
          "name": "approver",
          "type": "address"
        }
      ],
      "name": "ERC721InvalidApprover",
      "type": "error"
    },
    {
      "inputs": [
        {
          "internalType": "address",
          "name": "operator",
          "type": "address"
        }
      ],
      "name": "ERC721InvalidOperator",
      "type": "error"
    },
    {
      "inputs": [
        {
          "internalType": "address",
          "name": "owner",
          "type": "address"
        }
      ],
      "name": "ERC721InvalidOwner",
      "type": "error"
    },
    {
      "inputs": [
        {
          "internalType": "address",
          "name": "receiver",
          "type": "address"
        }
      ],
      "name": "ERC721InvalidReceiver",
      "type": "error"
    },
    {
      "inputs": [
        {
          "internalType": "address",
          "name": "sender",
          "type": "address"
        }
      ],
      "name": "ERC721InvalidSender",
      "type": "error"
    },
    {
      "inputs": [
        {
          "internalType": "uint256",
          "name": "tokenId",
          "type": "uint256"
        }
      ],
      "name": "ERC721NonexistentToken",
      "type": "error"
    },
    {
      "inputs": [],
      "name": "ReentrancyGuardReentrantCall",
      "type": "error"
    },
    {
      "anonymous": false,
      "inputs": [
        {
          "indexed": true,
          "internalType": "address",
          "name": "owner",
          "type": "address"
        },
        {
          "indexed": true,
          "internalType": "address",
          "name": "approved",
          "type": "address"
        },
        {
          "indexed": true,
          "internalType": "uint256",
          "name": "tokenId",
          "type": "uint256"
        }
      ],
      "name": "Approval",
      "type": "event"
    },
    {
      "anonymous": false,
      "inputs": [
        {
          "indexed": true,
          "internalType": "address",
          "name": "owner",
          "type": "address"
        },
        {
          "indexed": true,
          "internalType": "address",
          "name": "operator",
          "type": "address"
        },
        {
          "indexed": false,
          "internalType": "bool",
          "name": "approved",
          "type": "bool"
        }
      ],
      "name": "ApprovalForAll",
      "type": "event"
    },
    {
      "anonymous": false,
      "inputs": [
        {
          "indexed": false,
          "internalType": "uint256",
          "name": "_fromTokenId",
          "type": "uint256"
        },
        {
          "indexed": false,
          "internalType": "uint256",
          "name": "_toTokenId",
          "type": "uint256"
        }
      ],
      "name": "BatchMetadataUpdate",
      "type": "event"
    },
    {
      "anonymous": false,
      "inputs": [
        {
          "indexed": true,
          "internalType": "address",
          "name": "marketplace",
          "type": "address"
        },
        {
          "indexed": false,
          "internalType": "bool",
          "name": "approved",
          "type": "bool"
        }
      ],
      "name": "MarketplaceApprovalUpdated",
      "type": "event"
    },
    {
      "anonymous": false,
      "inputs": [
        {
          "indexed": false,
          "internalType": "uint256",
          "name": "newMaxPrice",
          "type": "uint256"
        }
      ],
      "name": "MaxPriceUpdated",
      "type": "event"
    },
    {
      "anonymous": false,
      "inputs": [
        {
          "indexed": false,
          "internalType": "uint256",
          "name": "_tokenId",
          "type": "uint256"
        }
      ],
      "name": "MetadataUpdate",
      "type": "event"
    },
    {
      "anonymous": false,
      "inputs": [
        {
          "indexed": true,
          "internalType": "bytes32",
          "name": "role",
          "type": "bytes32"
        },
        {
          "indexed": true,
          "internalType": "bytes32",
          "name": "previousAdminRole",
          "type": "bytes32"
        },
        {
          "indexed": true,
          "internalType": "bytes32",
          "name": "newAdminRole",
          "type": "bytes32"
        }
      ],
      "name": "RoleAdminChanged",
      "type": "event"
    },
    {
      "anonymous": false,
      "inputs": [
        {
          "indexed": true,
          "internalType": "bytes32",
          "name": "role",
          "type": "bytes32"
        },
        {
          "indexed": true,
          "internalType": "address",
          "name": "account",
          "type": "address"
        },
        {
          "indexed": true,
          "internalType": "address",
          "name": "sender",
          "type": "address"
        }
      ],
      "name": "RoleGranted",
      "type": "event"
    },
    {
      "anonymous": false,
      "inputs": [
        {
          "indexed": true,
          "internalType": "bytes32",
          "name": "role",
          "type": "bytes32"
        },
        {
          "indexed": true,
          "internalType": "address",
          "name": "account",
          "type": "address"
        },
        {
          "indexed": true,
          "internalType": "address",
          "name": "sender",
          "type": "address"
        }
      ],
      "name": "RoleRevoked",
      "type": "event"
    },
    {
      "anonymous": false,
      "inputs": [
        {
          "indexed": false,
          "internalType": "uint256",
          "name": "newRoyaltyCap",
          "type": "uint256"
        }
      ],
      "name": "RoyaltyCapUpdated",
      "type": "event"
    },
    {
      "anonymous": false,
      "inputs": [
        {
          "indexed": false,
          "internalType": "address",
          "name": "newRecipient",
          "type": "address"
        }
      ],
      "name": "RoyaltyRecipientUpdated",
      "type": "event"
    },
    {
      "anonymous": false,
      "inputs": [
        {
          "indexed": true,
          "internalType": "uint256",
          "name": "tokenId",
          "type": "uint256"
        },
        {
          "indexed": true,
          "internalType": "address",
          "name": "to",
          "type": "address"
        },
        {
          "indexed": false,
          "internalType": "string",
          "name": "uri",
          "type": "string"
        }
      ],
      "name": "TicketMinted",
      "type": "event"
    },
    {
      "anonymous": false,
      "inputs": [
        {
          "indexed": true,
          "internalType": "uint256",
          "name": "tokenId",
          "type": "uint256"
        },
        {
          "indexed": true,
          "internalType": "address",
          "name": "from",
          "type": "address"
        },
        {
          "indexed": true,
          "internalType": "address",
          "name": "to",
          "type": "address"
        },
        {
          "indexed": false,
          "internalType": "uint256",
          "name": "price",
          "type": "uint256"
        },
        {
          "indexed": false,
          "internalType": "uint256",
          "name": "royaltyAmount",
          "type": "uint256"
        }
      ],
      "name": "TicketTransferred",
      "type": "event"
    },
    {
      "anonymous": false,
      "inputs": [
        {
          "indexed": true,
          "internalType": "uint256",
          "name": "tokenId",
          "type": "uint256"
        },
        {
          "indexed": true,
          "internalType": "address",
          "name": "owner",
          "type": "address"
        }
      ],
      "name": "TicketUsed",
      "type": "event"
    },
    {
      "anonymous": false,
      "inputs": [
        {
          "indexed": true,
          "internalType": "address",
          "name": "from",
          "type": "address"
        },
        {
          "indexed": true,
          "internalType": "address",
          "name": "to",
          "type": "address"
        },
        {
          "indexed": true,
          "internalType": "uint256",
          "name": "tokenId",
          "type": "uint256"
        }
      ],
      "name": "Transfer",
      "type": "event"
    },
    {
      "inputs": [],
      "name": "ADMIN_ROLE",
      "outputs": [
        {
          "internalType": "bytes32",
          "name": "",
          "type": "bytes32"
        }
      ],
      "stateMutability": "view",
      "type": "function"
    },
    {
      "inputs": [],
      "name": "DEFAULT_ADMIN_ROLE",
      "outputs": [
        {
          "internalType": "bytes32",
          "name": "",
          "type": "bytes32"
        }
      ],
      "stateMutability": "view",
      "type": "function"
    },
    {
      "inputs": [],
      "name": "MINTER_ROLE",
      "outputs": [
        {
          "internalType": "bytes32",
          "name": "",
          "type": "bytes32"
        }
      ],
      "stateMutability": "view",
      "type": "function"
    },
    {
      "inputs": [
        {
          "internalType": "address",
          "name": "to",
          "type": "address"
        },
        {
          "internalType": "uint256",
          "name": "tokenId",
          "type": "uint256"
        }
      ],
      "name": "approve",
      "outputs": [],
      "stateMutability": "nonpayable",
      "type": "function"
    },
    {
      "inputs": [
        {
          "internalType": "address",
          "name": "",
          "type": "address"
        }
      ],
      "name": "approvedMarketplaces",
      "outputs": [
        {
          "internalType": "bool",
          "name": "",
          "type": "bool"
        }
      ],
      "stateMutability": "view",
      "type": "function"
    },
    {
      "inputs": [
        {
          "internalType": "address",
          "name": "owner",
          "type": "address"
        }
      ],
      "name": "balanceOf",
      "outputs": [
        {
          "internalType": "uint256",
          "name": "",
          "type": "uint256"
        }
      ],
      "stateMutability": "view",
      "type": "function"
    },
    {
      "inputs": [],
      "name": "eventDate",
      "outputs": [
        {
          "internalType": "uint256",
          "name": "",
          "type": "uint256"
        }
      ],
      "stateMutability": "view",
      "type": "function"
    },
    {
      "inputs": [],
      "name": "eventDescription",
      "outputs": [
        {
          "internalType": "string",
          "name": "",
          "type": "string"
        }
      ],
      "stateMutability": "view",
      "type": "function"
    },
    {
      "inputs": [],
      "name": "eventName",
      "outputs": [
        {
          "internalType": "string",
          "name": "",
          "type": "string"
        }
      ],
      "stateMutability": "view",
      "type": "function"
    },
    {
      "inputs": [],
      "name": "eventVenue",
      "outputs": [
        {
          "internalType": "string",
          "name": "",
          "type": "string"
        }
      ],
      "stateMutability": "view",
      "type": "function"
    },
    {
      "inputs": [
        {
          "internalType": "uint256",
          "name": "tokenId",
          "type": "uint256"
        }
      ],
      "name": "getApproved",
      "outputs": [
        {
          "internalType": "address",
          "name": "",
          "type": "address"
        }
      ],
      "stateMutability": "view",
      "type": "function"
    },
    {
      "inputs": [],
      "name": "getEventInfo",
      "outputs": [
        {
          "internalType": "string",
          "name": "name",
          "type": "string"
        },
        {
          "internalType": "string",
          "name": "description",
          "type": "string"
        },
        {
          "internalType": "uint256",
          "name": "date",
          "type": "uint256"
        },
        {
          "internalType": "string",
          "name": "venue",
          "type": "string"
        }
      ],
      "stateMutability": "view",
      "type": "function"
    },
    {
      "inputs": [
        {
          "internalType": "bytes32",
          "name": "role",
          "type": "bytes32"
        }
      ],
      "name": "getRoleAdmin",
      "outputs": [
        {
          "internalType": "bytes32",
          "name": "",
          "type": "bytes32"
        }
      ],
      "stateMutability": "view",
      "type": "function"
    },
    {
      "inputs": [
        {
          "internalType": "uint256",
          "name": "tokenId",
          "type": "uint256"
        }
      ],
      "name": "getTicketInfo",
      "outputs": [
        {
          "internalType": "address",
          "name": "owner",
          "type": "address"
        },
        {
          "internalType": "string",
          "name": "uri",
          "type": "string"
        },
        {
          "internalType": "bool",
          "name": "used",
          "type": "bool"
        },
        {
          "internalType": "uint256",
          "name": "origPrice",
          "type": "uint256"
        }
      ],
      "stateMutability": "view",
      "type": "function"
    },
    {
      "inputs": [
        {
          "internalType": "bytes32",
          "name": "role",
          "type": "bytes32"
        },
        {
          "internalType": "address",
          "name": "account",
          "type": "address"
        }
      ],
      "name": "grantRole",
      "outputs": [],
      "stateMutability": "nonpayable",
      "type": "function"
    },
    {
      "inputs": [
        {
          "internalType": "bytes32",
          "name": "role",
          "type": "bytes32"
        },
        {
          "internalType": "address",
          "name": "account",
          "type": "address"
        }
      ],
      "name": "hasRole",
      "outputs": [
        {
          "internalType": "bool",
          "name": "",
          "type": "bool"
        }
      ],
      "stateMutability": "view",
      "type": "function"
    },
    {
      "inputs": [
        {
          "internalType": "address",
          "name": "owner",
          "type": "address"
        },
        {
          "internalType": "address",
          "name": "operator",
          "type": "address"
        }
      ],
      "name": "isApprovedForAll",
      "outputs": [
        {
          "internalType": "bool",
          "name": "",
          "type": "bool"
        }
      ],
      "stateMutability": "view",
      "type": "function"
    },
    {
      "inputs": [],
      "name": "maxPrice",
      "outputs": [
        {
          "internalType": "uint256",
          "name": "",
          "type": "uint256"
        }
      ],
      "stateMutability": "view",
      "type": "function"
    },
    {
      "inputs": [
        {
          "internalType": "address",
          "name": "to",
          "type": "address"
        },
        {
          "internalType": "string",
          "name": "uri",
          "type": "string"
        },
        {
          "internalType": "uint256",
          "name": "price",
          "type": "uint256"
        }
      ],
      "name": "mintTicket",
      "outputs": [
        {
          "internalType": "uint256",
          "name": "",
          "type": "uint256"
        }
      ],
      "stateMutability": "nonpayable",
      "type": "function"
    },
    {
      "inputs": [],
      "name": "name",
      "outputs": [
        {
          "internalType": "string",
          "name": "",
          "type": "string"
        }
      ],
      "stateMutability": "view",
      "type": "function"
    },
    {
      "inputs": [
        {
          "internalType": "uint256",
          "name": "",
          "type": "uint256"
        }
      ],
      "name": "originalPrice",
      "outputs": [
        {
          "internalType": "uint256",
          "name": "",
          "type": "uint256"
        }
      ],
      "stateMutability": "view",
      "type": "function"
    },
    {
      "inputs": [
        {
          "internalType": "uint256",
          "name": "tokenId",
          "type": "uint256"
        }
      ],
      "name": "ownerOf",
      "outputs": [
        {
          "internalType": "address",
          "name": "",
          "type": "address"
        }
      ],
      "stateMutability": "view",
      "type": "function"
    },
    {
      "inputs": [
        {
          "internalType": "bytes32",
          "name": "role",
          "type": "bytes32"
        },
        {
          "internalType": "address",
          "name": "callerConfirmation",
          "type": "address"
        }
      ],
      "name": "renounceRole",
      "outputs": [],
      "stateMutability": "nonpayable",
      "type": "function"
    },
    {
      "inputs": [
        {
          "internalType": "bytes32",
          "name": "role",
          "type": "bytes32"
        },
        {
          "internalType": "address",
          "name": "account",
          "type": "address"
        }
      ],
      "name": "revokeRole",
      "outputs": [],
      "stateMutability": "nonpayable",
      "type": "function"
    },
    {
      "inputs": [],
      "name": "royaltyCap",
      "outputs": [
        {
          "internalType": "uint256",
          "name": "",
          "type": "uint256"
        }
      ],
      "stateMutability": "view",
      "type": "function"
    },
    {
      "inputs": [],
      "name": "royaltyRecipient",
      "outputs": [
        {
          "internalType": "address",
          "name": "",
          "type": "address"
        }
      ],
      "stateMutability": "view",
      "type": "function"
    },
    {
      "inputs": [
        {
          "internalType": "address",
          "name": "from",
          "type": "address"
        },
        {
          "internalType": "address",
          "name": "to",
          "type": "address"
        },
        {
          "internalType": "uint256",
          "name": "tokenId",
          "type": "uint256"
        }
      ],
      "name": "safeTransferFrom",
      "outputs": [],
      "stateMutability": "nonpayable",
      "type": "function"
    },
    {
      "inputs": [
        {
          "internalType": "address",
          "name": "from",
          "type": "address"
        },
        {
          "internalType": "address",
          "name": "to",
          "type": "address"
        },
        {
          "internalType": "uint256",
          "name": "tokenId",
          "type": "uint256"
        },
        {
          "internalType": "bytes",
          "name": "data",
          "type": "bytes"
        }
      ],
      "name": "safeTransferFrom",
      "outputs": [],
      "stateMutability": "nonpayable",
      "type": "function"
    },
    {
      "inputs": [
        {
          "internalType": "address",
          "name": "operator",
          "type": "address"
        },
        {
          "internalType": "bool",
          "name": "approved",
          "type": "bool"
        }
      ],
      "name": "setApprovalForAll",
      "outputs": [],
      "stateMutability": "nonpayable",
      "type": "function"
    },
    {
      "inputs": [
        {
          "internalType": "address",
          "name": "marketplace",
          "type": "address"
        },
        {
          "internalType": "bool",
          "name": "approved",
          "type": "bool"
        }
      ],
      "name": "setApprovedMarketplace",
      "outputs": [],
      "stateMutability": "nonpayable",
      "type": "function"
    },
    {
      "inputs": [
        {
          "internalType": "uint256",
          "name": "_maxPrice",
          "type": "uint256"
        }
      ],
      "name": "setMaxPrice",
      "outputs": [],
      "stateMutability": "nonpayable",
      "type": "function"
    },
    {
      "inputs": [
        {
          "internalType": "uint256",
          "name": "_royaltyCap",
          "type": "uint256"
        }
      ],
      "name": "setRoyaltyCap",
      "outputs": [],
      "stateMutability": "nonpayable",
      "type": "function"
    },
    {
      "inputs": [
        {
          "internalType": "address",
          "name": "_royaltyRecipient",
          "type": "address"
        }
      ],
      "name": "setRoyaltyRecipient",
      "outputs": [],
      "stateMutability": "nonpayable",
      "type": "function"
    },
    {
      "inputs": [
        {
          "internalType": "bytes4",
          "name": "interfaceId",
          "type": "bytes4"
        }
      ],
      "name": "supportsInterface",
      "outputs": [
        {
          "internalType": "bool",
          "name": "",
          "type": "bool"
        }
      ],
      "stateMutability": "view",
      "type": "function"
    },
    {
      "inputs": [],
      "name": "symbol",
      "outputs": [
        {
          "internalType": "string",
          "name": "",
          "type": "string"
        }
      ],
      "stateMutability": "view",
      "type": "function"
    },
    {
      "inputs": [
        {
          "internalType": "uint256",
          "name": "",
          "type": "uint256"
        }
      ],
      "name": "ticketUsed",
      "outputs": [
        {
          "internalType": "bool",
          "name": "",
          "type": "bool"
        }
      ],
      "stateMutability": "view",
      "type": "function"
    },
    {
      "inputs": [
        {
          "internalType": "uint256",
          "name": "tokenId",
          "type": "uint256"
        }
      ],
      "name": "tokenURI",
      "outputs": [
        {
          "internalType": "string",
          "name": "",
          "type": "string"
        }
      ],
      "stateMutability": "view",
      "type": "function"
    },
    {
      "inputs": [
        {
          "internalType": "address",
          "name": "from",
          "type": "address"
        },
        {
          "internalType": "address",
          "name": "to",
          "type": "address"
        },
        {
          "internalType": "uint256",
          "name": "tokenId",
          "type": "uint256"
        }
      ],
      "name": "transferFrom",
      "outputs": [],
      "stateMutability": "nonpayable",
      "type": "function"
    },
    {
      "inputs": [
        {
          "internalType": "address",
          "name": "from",
          "type": "address"
        },
        {
          "internalType": "address",
          "name": "to",
          "type": "address"
        },
        {
          "internalType": "uint256",
          "name": "tokenId",
          "type": "uint256"
        },
        {
          "internalType": "uint256",
          "name": "salePrice",
          "type": "uint256"
        }
      ],
      "name": "transferWithPrice",
      "outputs": [],
      "stateMutability": "payable",
      "type": "function"
    },
    {
      "inputs": [
        {
          "internalType": "uint256",
          "name": "tokenId",
          "type": "uint256"
        }
      ],
      "name": "useTicket",
      "outputs": [],
      "stateMutability": "nonpayable",
      "type": "function"
    }
  ],
  "bytecode": "0x60806040523480156200001157600080fd5b50604051620053ea380380620053ea833981810160405281019062000037919062000590565b6040518060400160405280600881526020017f4e465469636b65740000000000000000000000000000000000000000000000008152506040518060400160405280600581526020017f4e465449580000000000000000000000000000000000000000000000000000008152508160009081620000b49190620008e1565b508060019081620000c69190620008e1565b5050506001600881905550620000e66000801b33620001e660201b60201c565b50620001197fa49807205ce4d355092ef5a8a18f56e8913cf4a201fbe287825b095693c2177533620001e660201b60201c565b506200014c7f9f2df0fed2c77648de5860a4cc508cd0818c85b8b8a1ab4ceeef8d981c8956a633620001e660201b60201c565b5086600d90816200015e9190620008e1565b5085600e9081620001709190620008e1565b5084600f819055508360109081620001899190620008e1565b5082600a8190555081600b8190555080600c60006101000a81548173ffffffffffffffffffffffffffffffffffffffff021916908373ffffffffffffffffffffffffffffffffffffffff16021790555050505050505050620009c8565b6000620001fa8383620002ea60201b60201c565b620002df5760016007600085815260200190815260200160002060000160008473ffffffffffffffffffffffffffffffffffffffff1673ffffffffffffffffffffffffffffffffffffffff16815260200190815260200160002060006101000a81548160ff0219169083151502179055506200027b6200035560201b60201c565b73ffffffffffffffffffffffffffffffffffffffff168273ffffffffffffffffffffffffffffffffffffffff16847f2f8788117e7eff1d82e926ec794901d17c78024a50270940304540a733656f0d60405160405180910390a460019050620002e4565b600090505b92915050565b60006007600084815260200190815260200160002060000160008373ffffffffffffffffffffffffffffffffffffffff1673ffffffffffffffffffffffffffffffffffffffff16815260200190815260200160002060009054906101000a900460ff16905092915050565b600033905090565b6000604051905090565b600080fd5b600080fd5b600080fd5b600080fd5b6000601f19601f8301169050919050565b7f4e487b7100000000000000000000000000000000000000000000000000000000600052604160045260246000fd5b620003c6826200037b565b810181811067ffffffffffffffff82111715620003e857620003e76200038c565b5b80604052505050565b6000620003fd6200035d565b90506200040b8282620003bb565b919050565b600067ffffffffffffffff8211156200042e576200042d6200038c565b5b62000439826200037b565b9050602081019050919050565b60005b838110156200046657808201518184015260208101905062000449565b60008484015250505050565b600062000489620004838462000410565b620003f1565b905082815260208101848484011115620004a857620004a762000376565b5b620004b584828562000446565b509392505050565b600082601f830112620004d557620004d462000371565b5b8151620004e784826020860162000472565b91505092915050565b6000819050919050565b6200050581620004f0565b81146200051157600080fd5b50565b6000815190506200052581620004fa565b92915050565b600073ffffffffffffffffffffffffffffffffffffffff82169050919050565b600062000558826200052b565b9050919050565b6200056a816200054b565b81146200057657600080fd5b50565b6000815190506200058a816200055f565b92915050565b600080600080600080600060e0888a031215620005b257620005b162000367565b5b600088015167ffffffffffffffff811115620005d357620005d26200036c565b5b620005e18a828b01620004bd565b975050602088015167ffffffffffffffff8111156200060557620006046200036c565b5b620006138a828b01620004bd565b9650506040620006268a828b0162000514565b955050606088015167ffffffffffffffff8111156200064a57620006496200036c565b5b620006588a828b01620004bd565b94505060806200066b8a828b0162000514565b93505060a06200067e8a828b0162000514565b92505060c0620006918a828b0162000579565b91505092959891949750929550565b600081519050919050565b7f4e487b7100000000000000000000000000000000000000000000000000000000600052602260045260246000fd5b60006002820490506001821680620006f357607f821691505b602082108103620007095762000708620006ab565b5b50919050565b60008190508160005260206000209050919050565b60006020601f8301049050919050565b600082821b905092915050565b600060088302620007737fffffffffffffffffffffffffffffffffffffffffffffffffffffffffffffffff8262000734565b6200077f868362000734565b95508019841693508086168417925050509392505050565b6000819050919050565b6000620007c2620007bc620007b684620004f0565b62000797565b620004f0565b9050919050565b6000819050919050565b620007de83620007a1565b620007f6620007ed82620007c9565b84845462000741565b825550505050565b600090565b6200080d620007fe565b6200081a818484620007d3565b505050565b5b8181101562000842576200083660008262000803565b60018101905062000820565b5050565b601f82111562000891576200085b816200070f565b620008668462000724565b8101602085101562000876578190505b6200088e620008858562000724565b8301826200081f565b50505b505050565b600082821c905092915050565b6000620008b66000198460080262000896565b1980831691505092915050565b6000620008d18383620008a3565b9150826002028217905092915050565b620008ec82620006a0565b67ffffffffffffffff8111156200090857620009076200038c565b5b620009148254620006da565b6200092182828562000846565b600060209050601f83116001811462000959576000841562000944578287015190505b620009508582620008c3565b865550620009c0565b601f19841662000969866200070f565b60005b8281101562000993578489015182556001820191506020850194506020810190506200096c565b86831015620009b35784890151620009af601f891682620008a3565b8355505b6001600288020188555050505b505050505050565b614a1280620009d86000396000f3fe60806040526004361061023b5760003560e01c806375b238fc1161012e578063c87b56dd116100ab578063e22bda351161006f578063e22bda35146108c3578063e38d6b5c146108ee578063e985e9c514610919578063f43952e314610956578063ff99a0631461097f5761023b565b8063c87b56dd146107cc578063cf7a314114610809578063d539139314610846578063d547741f14610871578063dcc8a72e1461089a5761023b565b8063a0695feb116100f2578063a0695feb1461070a578063a217fddf14610726578063a22cb46514610751578063b88d4fde1461077a578063bbf46b84146107a35761023b565b806375b238fc146106215780638043c9c01461064c57806391d14854146106775780639434571b146106b457806395d89b41146106df5761023b565b806341e42f30116101bc578063588dac6811610180578063588dac68146104ff5780636352211e1461053c578063642b5f9b146105795780636d00fa68146105b657806370a08231146105e45761023b565b806341e42f301461041a57806342842e0e146104435780634bfbe5df1461046c5780634c00de8214610497578063543a9eb9146104c25761023b565b806323b872dd1161020357806323b872dd14610339578063248a9ca314610362578063266064481461039f5780632f2ff15d146103c857806336568abe146103f15761023b565b806301ffc9a71461024057806306d7be911461027d57806306fdde03146102a8578063081812fc146102d3578063095ea7b314610310575b600080fd5b34801561024c57600080fd5b506102676004803603810190610262919061358a565b6109bf565b60405161027491906135d2565b60405180910390f35b34801561028957600080fd5b506102926109d1565b60405161029f9190613606565b60405180910390f35b3480156102b457600080fd5b506102bd6109d7565b6040516102ca91906136b1565b60405180910390f35b3480156102df57600080fd5b506102fa60048036038101906102f591906136ff565b610a69565b604051610307919061376d565b60405180910390f35b34801561031c57600080fd5b50610337600480360381019061033291906137b4565b610a85565b005b34801561034557600080fd5b50610360600480360381019061035b91906137f4565b610a9b565b005b34801561036e57600080fd5b506103896004803603810190610384919061387d565b610b9d565b60405161039691906138b9565b60405180910390f35b3480156103ab57600080fd5b506103c660048036038101906103c191906136ff565b610bbd565b005b3480156103d457600080fd5b506103ef60048036038101906103ea91906138d4565b610d7e565b005b3480156103fd57600080fd5b50610418600480360381019061041391906138d4565b610da0565b005b34801561042657600080fd5b50610441600480360381019061043c9190613914565b610e1b565b005b34801561044f57600080fd5b5061046a600480360381019061046591906137f4565b610f30565b005b34801561047857600080fd5b50610481610f50565b60405161048e9190613606565b60405180910390f35b3480156104a357600080fd5b506104ac610f56565b6040516104b9919061376d565b60405180910390f35b3480156104ce57600080fd5b506104e960048036038101906104e49190613914565b610f7c565b6040516104f691906135d2565b60405180910390f35b34801561050b57600080fd5b50610526600480360381019061052191906136ff565b610f9c565b6040516105339190613606565b60405180910390f35b34801561054857600080fd5b50610563600480360381019061055e91906136ff565b610fb4565b604051610570919061376d565b60405180910390f35b34801561058557600080fd5b506105a0600480360381019061059b91906136ff565b610fc6565b6040516105ad91906135d2565b60405180910390f35b3480156105c257600080fd5b506105cb610fe6565b6040516105db9493929190613941565b60405180910390f35b3480156105f057600080fd5b5061060b60048036038101906106069190613914565b6111a8565b6040516106189190613606565b60405180910390f35b34801561062d57600080fd5b50610636611262565b60405161064391906138b9565b60405180910390f35b34801561065857600080fd5b50610661611286565b60405161066e91906136b1565b60405180910390f35b34801561068357600080fd5b5061069e600480360381019061069991906138d4565b611314565b6040516106ab91906135d2565b60405180910390f35b3480156106c057600080fd5b506106c961137f565b6040516106d691906136b1565b60405180910390f35b3480156106eb57600080fd5b506106f461140d565b60405161070191906136b1565b60405180910390f35b610724600480360381019061071f919061399b565b61149f565b005b34801561073257600080fd5b5061073b6118e4565b60405161074891906138b9565b60405180910390f35b34801561075d57600080fd5b5061077860048036038101906107739190613a2e565b6118eb565b005b34801561078657600080fd5b506107a1600480360381019061079c9190613ba3565b611901565b005b3480156107af57600080fd5b506107ca60048036038101906107c59190613a2e565b611926565b005b3480156107d857600080fd5b506107f360048036038101906107ee91906136ff565b6119fa565b60405161080091906136b1565b60405180910390f35b34801561081557600080fd5b50610830600480360381019061082b9190613cc7565b611a0c565b60405161083d9190613606565b60405180910390f35b34801561085257600080fd5b5061085b611ada565b60405161086891906138b9565b60405180910390f35b34801561087d57600080fd5b50610898600480360381019061089391906138d4565b611afe565b005b3480156108a657600080fd5b506108c160048036038101906108bc91906136ff565b611b20565b005b3480156108cf57600080fd5b506108d8611bd1565b6040516108e591906136b1565b60405180910390f35b3480156108fa57600080fd5b50610903611c5f565b6040516109109190613606565b60405180910390f35b34801561092557600080fd5b50610940600480360381019061093b9190613d36565b611c65565b60405161094d91906135d2565b60405180910390f35b34801561096257600080fd5b5061097d600480360381019061097891906136ff565b611cf9565b005b34801561098b57600080fd5b506109a660048036038101906109a191906136ff565b611d65565b6040516109b69493929190613d76565b60405180910390f35b60006109ca82611e39565b9050919050565b600a5481565b6060600080546109e690613df1565b80601f0160208091040260200160405190810160405280929190818152602001828054610a1290613df1565b8015610a5f5780601f10610a3457610100808354040283529160200191610a5f565b820191906000526020600020905b815481529060010190602001808311610a4257829003601f168201915b5050505050905090565b6000610a7482611eb3565b50610a7e82611f3b565b9050919050565b610a978282610a92611f78565b611f80565b5050565b600073ffffffffffffffffffffffffffffffffffffffff168273ffffffffffffffffffffffffffffffffffffffff1603610b0d5760006040517f64a0ae92000000000000000000000000000000000000000000000000000000008152600401610b04919061376d565b60405180910390fd5b6000610b218383610b1c611f78565b611f92565b90508373ffffffffffffffffffffffffffffffffffffffff168173ffffffffffffffffffffffffffffffffffffffff1614610b97578382826040517f64283d7b000000000000000000000000000000000000000000000000000000008152600401610b8e93929190613e22565b60405180910390fd5b50505050565b600060076000838152602001908152602001600020600101549050919050565b600073ffffffffffffffffffffffffffffffffffffffff16610bde82610fb4565b73ffffffffffffffffffffffffffffffffffffffff1603610c34576040517f08c379a0000000000000000000000000000000000000000000000000000000008152600401610c2b90613ea5565b60405180910390fd5b3373ffffffffffffffffffffffffffffffffffffffff16610c5482610fb4565b73ffffffffffffffffffffffffffffffffffffffff1614610caa576040517f08c379a0000000000000000000000000000000000000000000000000000000008152600401610ca190613f37565b60405180910390fd5b6011600082815260200190815260200160002060009054906101000a900460ff1615610d0b576040517f08c379a0000000000000000000000000000000000000000000000000000000008152600401610d0290613fc9565b60405180910390fd5b60016011600083815260200190815260200160002060006101000a81548160ff0219169083151502179055503373ffffffffffffffffffffffffffffffffffffffff16817f07c2221c844690cb15e32907258d38446cd4a17bc9b84e2069cd955615d547fd60405160405180910390a350565b610d8782610b9d565b610d908161215e565b610d9a8383612172565b50505050565b610da8611f78565b73ffffffffffffffffffffffffffffffffffffffff168173ffffffffffffffffffffffffffffffffffffffff1614610e0c576040517f6697b23200000000000000000000000000000000000000000000000000000000815260040160405180910390fd5b610e168282612264565b505050565b7fa49807205ce4d355092ef5a8a18f56e8913cf4a201fbe287825b095693c21775610e458161215e565b600073ffffffffffffffffffffffffffffffffffffffff168273ffffffffffffffffffffffffffffffffffffffff1603610eb4576040517f08c379a0000000000000000000000000000000000000000000000000000000008152600401610eab9061405b565b60405180910390fd5b81600c60006101000a81548173ffffffffffffffffffffffffffffffffffffffff021916908373ffffffffffffffffffffffffffffffffffffffff1602179055507f9a7b12086ecc1d5c7e25db5f792d086e440b089f91ebbdb19380452deea6703b82604051610f24919061376d565b60405180910390a15050565b610f4b83838360405180602001604052806000815250611901565b505050565b600f5481565b600c60009054906101000a900473ffffffffffffffffffffffffffffffffffffffff1681565b60136020528060005260406000206000915054906101000a900460ff1681565b60126020528060005260406000206000915090505481565b6000610fbf82611eb3565b9050919050565b60116020528060005260406000206000915054906101000a900460ff1681565b60608060006060600d600e600f54601083805461100290613df1565b80601f016020809104026020016040519081016040528092919081815260200182805461102e90613df1565b801561107b5780601f106110505761010080835404028352916020019161107b565b820191906000526020600020905b81548152906001019060200180831161105e57829003601f168201915b5050505050935082805461108e90613df1565b80601f01602080910402602001604051908101604052809291908181526020018280546110ba90613df1565b80156111075780601f106110dc57610100808354040283529160200191611107565b820191906000526020600020905b8154815290600101906020018083116110ea57829003601f168201915b5050505050925080805461111a90613df1565b80601f016020809104026020016040519081016040528092919081815260200182805461114690613df1565b80156111935780601f1061116857610100808354040283529160200191611193565b820191906000526020600020905b81548152906001019060200180831161117657829003601f168201915b50505050509050935093509350935090919293565b60008073ffffffffffffffffffffffffffffffffffffffff168273ffffffffffffffffffffffffffffffffffffffff160361121b5760006040517f89c62b64000000000000000000000000000000000000000000000000000000008152600401611212919061376d565b60405180910390fd5b600360008373ffffffffffffffffffffffffffffffffffffffff1673ffffffffffffffffffffffffffffffffffffffff168152602001908152602001600020549050919050565b7fa49807205ce4d355092ef5a8a18f56e8913cf4a201fbe287825b095693c2177581565b600d805461129390613df1565b80601f01602080910402602001604051908101604052809291908181526020018280546112bf90613df1565b801561130c5780601f106112e15761010080835404028352916020019161130c565b820191906000526020600020905b8154815290600101906020018083116112ef57829003601f168201915b505050505081565b60006007600084815260200190815260200160002060000160008373ffffffffffffffffffffffffffffffffffffffff1673ffffffffffffffffffffffffffffffffffffffff16815260200190815260200160002060009054906101000a900460ff16905092915050565b600e805461138c90613df1565b80601f01602080910402602001604051908101604052809291908181526020018280546113b890613df1565b80156114055780601f106113da57610100808354040283529160200191611405565b820191906000526020600020905b8154815290600101906020018083116113e857829003601f168201915b505050505081565b60606001805461141c90613df1565b80601f016020809104026020016040519081016040528092919081815260200182805461144890613df1565b80156114955780601f1061146a57610100808354040283529160200191611495565b820191906000526020600020905b81548152906001019060200180831161147857829003601f168201915b5050505050905090565b6114a7612357565b6114b082610fb4565b73ffffffffffffffffffffffffffffffffffffffff163373ffffffffffffffffffffffffffffffffffffffff16148061151c57503373ffffffffffffffffffffffffffffffffffffffff1661150483610a69565b73ffffffffffffffffffffffffffffffffffffffff16145b80611535575061153461152e83610fb4565b33611c65565b5b611574576040517f08c379a000000000000000000000000000000000000000000000000000000000815260040161156b906140ed565b60405180910390fd5b8373ffffffffffffffffffffffffffffffffffffffff1661159483610fb4565b73ffffffffffffffffffffffffffffffffffffffff16146115ea576040517f08c379a00000000000000000000000000000000000000000000000000000000081526004016115e19061417f565b60405180910390fd5b6011600083815260200190815260200160002060009054906101000a900460ff161561164b576040517f08c379a000000000000000000000000000000000000000000000000000000000815260040161164290613fc9565b60405180910390fd5b600081111561189557600b54811115611699576040517f08c379a000000000000000000000000000000000000000000000000000000000815260040161169090614211565b60405180910390fd5b803410156116dc576040517f08c379a00000000000000000000000000000000000000000000000000000000081526004016116d39061427d565b60405180910390fd5b6000612710600a54836116ef91906142cc565b6116f9919061433d565b905060008183611709919061436e565b9050600082111561177e57600c60009054906101000a900473ffffffffffffffffffffffffffffffffffffffff1673ffffffffffffffffffffffffffffffffffffffff166108fc839081150290604051600060405180830381858888f1935050505015801561177c573d6000803e3d6000fd5b505b60008111156117cf578573ffffffffffffffffffffffffffffffffffffffff166108fc829081150290604051600060405180830381858888f193505050501580156117cd573d6000803e3d6000fd5b505b8234111561182a573373ffffffffffffffffffffffffffffffffffffffff166108fc84346117fd919061436e565b9081150290604051600060405180830381858888f19350505050158015611828573d6000803e3d6000fd5b505b8473ffffffffffffffffffffffffffffffffffffffff168673ffffffffffffffffffffffffffffffffffffffff16857f594aa97ad345f7dddf5cac7abcf735e159b03c05abd888d4b0ed23dab2a9124f868660405161188a9291906143a2565b60405180910390a450505b6001601460006101000a81548160ff0219169083151502179055506118bb84848461239d565b6000601460006101000a81548160ff0219169083151502179055506118de61250a565b50505050565b6000801b81565b6118fd6118f6611f78565b8383612514565b5050565b61190c848484610a9b565b611920611917611f78565b85858585612683565b50505050565b7fa49807205ce4d355092ef5a8a18f56e8913cf4a201fbe287825b095693c217756119508161215e565b81601360008573ffffffffffffffffffffffffffffffffffffffff1673ffffffffffffffffffffffffffffffffffffffff16815260200190815260200160002060006101000a81548160ff0219169083151502179055508273ffffffffffffffffffffffffffffffffffffffff167fccd3ed4a44faf3e09991dbb052548b2f73fdd2a8da198e2412a4dff80dacdd5b836040516119ed91906135d2565b60405180910390a2505050565b6060611a0582612834565b9050919050565b60007f9f2df0fed2c77648de5860a4cc508cd0818c85b8b8a1ab4ceeef8d981c8956a6611a388161215e565b600060096000815480929190611a4d906143cb565b919050559050611a5d8682612947565b611a678186612965565b8360126000838152602001908152602001600020819055508573ffffffffffffffffffffffffffffffffffffffff16817f01fe50c1ea65ec45d727411cce4e6ac546a4cc83120dc5d887b7949347bfe72887604051611ac691906136b1565b60405180910390a380925050509392505050565b7f9f2df0fed2c77648de5860a4cc508cd0818c85b8b8a1ab4ceeef8d981c8956a681565b611b0782610b9d565b611b108161215e565b611b1a8383612264565b50505050565b7fa49807205ce4d355092ef5a8a18f56e8913cf4a201fbe287825b095693c21775611b4a8161215e565b6109c4821115611b8f576040517f08c379a0000000000000000000000000000000000000000000000000000000008152600401611b8690614485565b60405180910390fd5b81600a819055507fd6e678cb70dca1cad09d62883e6bc985adc5c8d45224655bd9409f2d0179092582604051611bc59190613606565b60405180910390a15050565b60108054611bde90613df1565b80601f0160208091040260200160405190810160405280929190818152602001828054611c0a90613df1565b8015611c575780601f10611c2c57610100808354040283529160200191611c57565b820191906000526020600020905b815481529060010190602001808311611c3a57829003601f168201915b505050505081565b600b5481565b6000600560008473ffffffffffffffffffffffffffffffffffffffff1673ffffffffffffffffffffffffffffffffffffffff16815260200190815260200160002060008373ffffffffffffffffffffffffffffffffffffffff1673ffffffffffffffffffffffffffffffffffffffff16815260200190815260200160002060009054906101000a900460ff16905092915050565b7fa49807205ce4d355092ef5a8a18f56e8913cf4a201fbe287825b095693c21775611d238161215e565b81600b819055507f202e0ba938a78b3edea663296e8a06054c65df48fc652817d1e4231351a4c1e282604051611d599190613606565b60405180910390a15050565b60006060600080600073ffffffffffffffffffffffffffffffffffffffff16611d8d86610fb4565b73ffffffffffffffffffffffffffffffffffffffff1603611de3576040517f08c379a0000000000000000000000000000000000000000000000000000000008152600401611dda90613ea5565b60405180910390fd5b611dec85610fb4565b611df5866119fa565b6011600088815260200190815260200160002060009054906101000a900460ff16601260008981526020019081526020016000205493509350935093509193509193565b60007f7965db0b000000000000000000000000000000000000000000000000000000007bffffffffffffffffffffffffffffffffffffffffffffffffffffffff1916827bffffffffffffffffffffffffffffffffffffffffffffffffffffffff19161480611eac5750611eab826129c1565b5b9050919050565b600080611ebf83612a22565b9050600073ffffffffffffffffffffffffffffffffffffffff168173ffffffffffffffffffffffffffffffffffffffff1603611f3257826040517f7e273289000000000000000000000000000000000000000000000000000000008152600401611f299190613606565b60405180910390fd5b80915050919050565b60006004600083815260200190815260200160002060009054906101000a900473ffffffffffffffffffffffffffffffffffffffff169050919050565b600033905090565b611f8d8383836001612a5f565b505050565b60008073ffffffffffffffffffffffffffffffffffffffff168473ffffffffffffffffffffffffffffffffffffffff1614612029576011600084815260200190815260200160002060009054906101000a900460ff1615612028576040517f08c379a000000000000000000000000000000000000000000000000000000000815260040161201f90614517565b60405180910390fd5b5b600061203484612a22565b9050600073ffffffffffffffffffffffffffffffffffffffff168173ffffffffffffffffffffffffffffffffffffffff16141580156120a05750600073ffffffffffffffffffffffffffffffffffffffff168573ffffffffffffffffffffffffffffffffffffffff1614155b1561214957601460009054906101000a900460ff16806121095750601360003373ffffffffffffffffffffffffffffffffffffffff1673ffffffffffffffffffffffffffffffffffffffff16815260200190815260200160002060009054906101000a900460ff165b612148576040517f08c379a000000000000000000000000000000000000000000000000000000000815260040161213f906145a9565b60405180910390fd5b5b612154858585612c24565b9150509392505050565b61216f8161216a611f78565b612e3e565b50565b600061217e8383611314565b6122595760016007600085815260200190815260200160002060000160008473ffffffffffffffffffffffffffffffffffffffff1673ffffffffffffffffffffffffffffffffffffffff16815260200190815260200160002060006101000a81548160ff0219169083151502179055506121f6611f78565b73ffffffffffffffffffffffffffffffffffffffff168273ffffffffffffffffffffffffffffffffffffffff16847f2f8788117e7eff1d82e926ec794901d17c78024a50270940304540a733656f0d60405160405180910390a46001905061225e565b600090505b92915050565b60006122708383611314565b1561234c5760006007600085815260200190815260200160002060000160008473ffffffffffffffffffffffffffffffffffffffff1673ffffffffffffffffffffffffffffffffffffffff16815260200190815260200160002060006101000a81548160ff0219169083151502179055506122e9611f78565b73ffffffffffffffffffffffffffffffffffffffff168273ffffffffffffffffffffffffffffffffffffffff16847ff6391f5c32d9c69d2a47ea670b442974b53935d1edc7fd64eb21e047a839171b60405160405180910390a460019050612351565b600090505b92915050565b600260085403612393576040517f3ee5aeb500000000000000000000000000000000000000000000000000000000815260040160405180910390fd5b6002600881905550565b600073ffffffffffffffffffffffffffffffffffffffff168273ffffffffffffffffffffffffffffffffffffffff160361240f5760006040517f64a0ae92000000000000000000000000000000000000000000000000000000008152600401612406919061376d565b60405180910390fd5b600061241d83836000611f92565b9050600073ffffffffffffffffffffffffffffffffffffffff168173ffffffffffffffffffffffffffffffffffffffff160361249057816040517f7e2732890000000000000000000000000000000000000000000000000000000081526004016124879190613606565b60405180910390fd5b8373ffffffffffffffffffffffffffffffffffffffff168173ffffffffffffffffffffffffffffffffffffffff1614612504578382826040517f64283d7b0000000000000000000000000000000000000000000000000000000081526004016124fb93929190613e22565b60405180910390fd5b50505050565b6001600881905550565b600073ffffffffffffffffffffffffffffffffffffffff168273ffffffffffffffffffffffffffffffffffffffff160361258557816040517f5b08ba1800000000000000000000000000000000000000000000000000000000815260040161257c919061376d565b60405180910390fd5b80600560008573ffffffffffffffffffffffffffffffffffffffff1673ffffffffffffffffffffffffffffffffffffffff16815260200190815260200160002060008473ffffffffffffffffffffffffffffffffffffffff1673ffffffffffffffffffffffffffffffffffffffff16815260200190815260200160002060006101000a81548160ff0219169083151502179055508173ffffffffffffffffffffffffffffffffffffffff168373ffffffffffffffffffffffffffffffffffffffff167f17307eab39ab6107e8899845ad3d59bd9653f200f220920489ca2b5937696c318360405161267691906135d2565b60405180910390a3505050565b60008373ffffffffffffffffffffffffffffffffffffffff163b111561282d578273ffffffffffffffffffffffffffffffffffffffff1663150b7a02868685856040518563ffffffff1660e01b81526004016126e2949392919061461e565b6020604051808303816000875af192505050801561271e57506040513d601f19601f8201168201806040525081019061271b919061467f565b60015b6127a2573d806000811461274e576040519150601f19603f3d011682016040523d82523d6000602084013e612753565b606091505b50600081510361279a57836040517f64a0ae92000000000000000000000000000000000000000000000000000000008152600401612791919061376d565b60405180910390fd5b805160208201fd5b63150b7a0260e01b7bffffffffffffffffffffffffffffffffffffffffffffffffffffffff1916817bffffffffffffffffffffffffffffffffffffffffffffffffffffffff19161461282b57836040517f64a0ae92000000000000000000000000000000000000000000000000000000008152600401612822919061376d565b60405180910390fd5b505b5050505050565b606061283f82611eb3565b50600060066000848152602001908152602001600020805461286090613df1565b80601f016020809104026020016040519081016040528092919081815260200182805461288c90613df1565b80156128d95780601f106128ae576101008083540402835291602001916128d9565b820191906000526020600020905b8154815290600101906020018083116128bc57829003601f168201915b5050505050905060006128ea612e8f565b905060008151036128ff578192505050612942565b60008251111561293457808260405160200161291c9291906146e8565b60405160208183030381529060405292505050612942565b61293d84612ea6565b925050505b919050565b612961828260405180602001604052806000815250612f0f565b5050565b8060066000848152602001908152602001600020908161298591906148b8565b507ff8e1a15aba9398e019f0b49df1a4fde98ee17ae345cb5f6b5e2c27f5033e8ce7826040516129b59190613606565b60405180910390a15050565b6000634906490660e01b7bffffffffffffffffffffffffffffffffffffffffffffffffffffffff1916827bffffffffffffffffffffffffffffffffffffffffffffffffffffffff19161480612a1b5750612a1a82612f33565b5b9050919050565b60006002600083815260200190815260200160002060009054906101000a900473ffffffffffffffffffffffffffffffffffffffff169050919050565b8080612a985750600073ffffffffffffffffffffffffffffffffffffffff168273ffffffffffffffffffffffffffffffffffffffff1614155b15612bcc576000612aa884611eb3565b9050600073ffffffffffffffffffffffffffffffffffffffff168373ffffffffffffffffffffffffffffffffffffffff1614158015612b1357508273ffffffffffffffffffffffffffffffffffffffff168173ffffffffffffffffffffffffffffffffffffffff1614155b8015612b265750612b248184611c65565b155b15612b6857826040517fa9fbf51f000000000000000000000000000000000000000000000000000000008152600401612b5f919061376d565b60405180910390fd5b8115612bca57838573ffffffffffffffffffffffffffffffffffffffff168273ffffffffffffffffffffffffffffffffffffffff167f8c5be1e5ebec7d5bd14f71427d1e84f3dd0314c0f7b2291e5b200ac8c7c3b92560405160405180910390a45b505b836004600085815260200190815260200160002060006101000a81548173ffffffffffffffffffffffffffffffffffffffff021916908373ffffffffffffffffffffffffffffffffffffffff16021790555050505050565b600080612c3084612a22565b9050600073ffffffffffffffffffffffffffffffffffffffff168373ffffffffffffffffffffffffffffffffffffffff1614612c7257612c71818486613015565b5b600073ffffffffffffffffffffffffffffffffffffffff168173ffffffffffffffffffffffffffffffffffffffff1614612d0357612cb4600085600080612a5f565b6001600360008373ffffffffffffffffffffffffffffffffffffffff1673ffffffffffffffffffffffffffffffffffffffff168152602001908152602001600020600082825403925050819055505b600073ffffffffffffffffffffffffffffffffffffffff168573ffffffffffffffffffffffffffffffffffffffff1614612d86576001600360008773ffffffffffffffffffffffffffffffffffffffff1673ffffffffffffffffffffffffffffffffffffffff168152602001908152602001600020600082825401925050819055505b846002600086815260200190815260200160002060006101000a81548173ffffffffffffffffffffffffffffffffffffffff021916908373ffffffffffffffffffffffffffffffffffffffff160217905550838573ffffffffffffffffffffffffffffffffffffffff168273ffffffffffffffffffffffffffffffffffffffff167fddf252ad1be2c89b69c2b068fc378daa952ba7f163c4a11628f55a4df523b3ef60405160405180910390a4809150509392505050565b612e488282611314565b612e8b5780826040517fe2517d3f000000000000000000000000000000000000000000000000000000008152600401612e8292919061498a565b60405180910390fd5b5050565b606060405180602001604052806000815250905090565b6060612eb182611eb3565b506000612ebc612e8f565b90506000815111612edc5760405180602001604052806000815250612f07565b80612ee6846130d9565b604051602001612ef79291906146e8565b6040516020818303038152906040525b915050919050565b612f1983836131a7565b612f2e612f24611f78565b6000858585612683565b505050565b60007f80ac58cd000000000000000000000000000000000000000000000000000000007bffffffffffffffffffffffffffffffffffffffffffffffffffffffff1916827bffffffffffffffffffffffffffffffffffffffffffffffffffffffff19161480612ffe57507f5b5e139f000000000000000000000000000000000000000000000000000000007bffffffffffffffffffffffffffffffffffffffffffffffffffffffff1916827bffffffffffffffffffffffffffffffffffffffffffffffffffffffff1916145b8061300e575061300d826132a0565b5b9050919050565b61302083838361330a565b6130d457600073ffffffffffffffffffffffffffffffffffffffff168373ffffffffffffffffffffffffffffffffffffffff160361309557806040517f7e27328900000000000000000000000000000000000000000000000000000000815260040161308c9190613606565b60405180910390fd5b81816040517f177e802f0000000000000000000000000000000000000000000000000000000081526004016130cb9291906149b3565b60405180910390fd5b505050565b6060600060016130e8846133cb565b01905060008167ffffffffffffffff81111561310757613106613a78565b5b6040519080825280601f01601f1916602001820160405280156131395781602001600182028036833780820191505090505b509050600082602083010190505b60011561319c578080600190039150507f3031323334353637383961626364656600000000000000000000000000000000600a86061a8153600a85816131905761318f61430e565b5b04945060008503613147575b819350505050919050565b600073ffffffffffffffffffffffffffffffffffffffff168273ffffffffffffffffffffffffffffffffffffffff16036132195760006040517f64a0ae92000000000000000000000000000000000000000000000000000000008152600401613210919061376d565b60405180910390fd5b600061322783836000611f92565b9050600073ffffffffffffffffffffffffffffffffffffffff168173ffffffffffffffffffffffffffffffffffffffff161461329b5760006040517f73c6ac6e000000000000000000000000000000000000000000000000000000008152600401613292919061376d565b60405180910390fd5b505050565b60007f01ffc9a7000000000000000000000000000000000000000000000000000000007bffffffffffffffffffffffffffffffffffffffffffffffffffffffff1916827bffffffffffffffffffffffffffffffffffffffffffffffffffffffff1916149050919050565b60008073ffffffffffffffffffffffffffffffffffffffff168373ffffffffffffffffffffffffffffffffffffffff16141580156133c257508273ffffffffffffffffffffffffffffffffffffffff168473ffffffffffffffffffffffffffffffffffffffff16148061338357506133828484611c65565b5b806133c157508273ffffffffffffffffffffffffffffffffffffffff166133a983611f3b565b73ffffffffffffffffffffffffffffffffffffffff16145b5b90509392505050565b600080600090507a184f03e93ff9f4daa797ed6e38ed64bf6a1f0100000000000000008310613429577a184f03e93ff9f4daa797ed6e38ed64bf6a1f010000000000000000838161341f5761341e61430e565b5b0492506040810190505b6d04ee2d6d415b85acef81000000008310613466576d04ee2d6d415b85acef8100000000838161345c5761345b61430e565b5b0492506020810190505b662386f26fc10000831061349557662386f26fc10000838161348b5761348a61430e565b5b0492506010810190505b6305f5e10083106134be576305f5e10083816134b4576134b361430e565b5b0492506008810190505b61271083106134e35761271083816134d9576134d861430e565b5b0492506004810190505b6064831061350657606483816134fc576134fb61430e565b5b0492506002810190505b600a8310613515576001810190505b80915050919050565b6000604051905090565b600080fd5b600080fd5b60007fffffffff0000000000000000000000000000000000000000000000000000000082169050919050565b61356781613532565b811461357257600080fd5b50565b6000813590506135848161355e565b92915050565b6000602082840312156135a05761359f613528565b5b60006135ae84828501613575565b91505092915050565b60008115159050919050565b6135cc816135b7565b82525050565b60006020820190506135e760008301846135c3565b92915050565b6000819050919050565b613600816135ed565b82525050565b600060208201905061361b60008301846135f7565b92915050565b600081519050919050565b600082825260208201905092915050565b60005b8381101561365b578082015181840152602081019050613640565b60008484015250505050565b6000601f19601f8301169050919050565b600061368382613621565b61368d818561362c565b935061369d81856020860161363d565b6136a681613667565b840191505092915050565b600060208201905081810360008301526136cb8184613678565b905092915050565b6136dc816135ed565b81146136e757600080fd5b50565b6000813590506136f9816136d3565b92915050565b60006020828403121561371557613714613528565b5b6000613723848285016136ea565b91505092915050565b600073ffffffffffffffffffffffffffffffffffffffff82169050919050565b60006137578261372c565b9050919050565b6137678161374c565b82525050565b6000602082019050613782600083018461375e565b92915050565b6137918161374c565b811461379c57600080fd5b50565b6000813590506137ae81613788565b92915050565b600080604083850312156137cb576137ca613528565b5b60006137d98582860161379f565b92505060206137ea858286016136ea565b9150509250929050565b60008060006060848603121561380d5761380c613528565b5b600061381b8682870161379f565b935050602061382c8682870161379f565b925050604061383d868287016136ea565b9150509250925092565b6000819050919050565b61385a81613847565b811461386557600080fd5b50565b60008135905061387781613851565b92915050565b60006020828403121561389357613892613528565b5b60006138a184828501613868565b91505092915050565b6138b381613847565b82525050565b60006020820190506138ce60008301846138aa565b92915050565b600080604083850312156138eb576138ea613528565b5b60006138f985828601613868565b925050602061390a8582860161379f565b9150509250929050565b60006020828403121561392a57613929613528565b5b60006139388482850161379f565b91505092915050565b6000608082019050818103600083015261395b8187613678565b9050818103602083015261396f8186613678565b905061397e60408301856135f7565b81810360608301526139908184613678565b905095945050505050565b600080600080608085870312156139b5576139b4613528565b5b60006139c38782880161379f565b94505060206139d48782880161379f565b93505060406139e5878288016136ea565b92505060606139f6878288016136ea565b91505092959194509250565b613a0b816135b7565b8114613a1657600080fd5b50565b600081359050613a2881613a02565b92915050565b60008060408385031215613a4557613a44613528565b5b6000613a538582860161379f565b9250506020613a6485828601613a19565b9150509250929050565b600080fd5b600080fd5b7f4e487b7100000000000000000000000000000000000000000000000000000000600052604160045260246000fd5b613ab082613667565b810181811067ffffffffffffffff82111715613acf57613ace613a78565b5b80604052505050565b6000613ae261351e565b9050613aee8282613aa7565b919050565b600067ffffffffffffffff821115613b0e57613b0d613a78565b5b613b1782613667565b9050602081019050919050565b82818337600083830152505050565b6000613b46613b4184613af3565b613ad8565b905082815260208101848484011115613b6257613b61613a73565b5b613b6d848285613b24565b509392505050565b600082601f830112613b8a57613b89613a6e565b5b8135613b9a848260208601613b33565b91505092915050565b60008060008060808587031215613bbd57613bbc613528565b5b6000613bcb8782880161379f565b9450506020613bdc8782880161379f565b9350506040613bed878288016136ea565b925050606085013567ffffffffffffffff811115613c0e57613c0d61352d565b5b613c1a87828801613b75565b91505092959194509250565b600067ffffffffffffffff821115613c4157613c40613a78565b5b613c4a82613667565b9050602081019050919050565b6000613c6a613c6584613c26565b613ad8565b905082815260208101848484011115613c8657613c85613a73565b5b613c91848285613b24565b509392505050565b600082601f830112613cae57613cad613a6e565b5b8135613cbe848260208601613c57565b91505092915050565b600080600060608486031215613ce057613cdf613528565b5b6000613cee8682870161379f565b935050602084013567ffffffffffffffff811115613d0f57613d0e61352d565b5b613d1b86828701613c99565b9250506040613d2c868287016136ea565b9150509250925092565b60008060408385031215613d4d57613d4c613528565b5b6000613d5b8582860161379f565b9250506020613d6c8582860161379f565b9150509250929050565b6000608082019050613d8b600083018761375e565b8181036020830152613d9d8186613678565b9050613dac60408301856135c3565b613db960608301846135f7565b95945050505050565b7f4e487b7100000000000000000000000000000000000000000000000000000000600052602260045260246000fd5b60006002820490506001821680613e0957607f821691505b602082108103613e1c57613e1b613dc2565b5b50919050565b6000606082019050613e37600083018661375e565b613e4460208301856135f7565b613e51604083018461375e565b949350505050565b7f4e465469636b65743a207469636b657420646f6573206e6f7420657869737400600082015250565b6000613e8f601f8361362c565b9150613e9a82613e59565b602082019050919050565b60006020820190508181036000830152613ebe81613e82565b9050919050565b7f4e465469636b65743a2063616c6c6572206973206e6f7420746865206f776e6560008201527f7200000000000000000000000000000000000000000000000000000000000000602082015250565b6000613f2160218361362c565b9150613f2c82613ec5565b604082019050919050565b60006020820190508181036000830152613f5081613f14565b9050919050565b7f4e465469636b65743a207469636b65742068617320616c72656164792062656560008201527f6e20757365640000000000000000000000000000000000000000000000000000602082015250565b6000613fb360268361362c565b9150613fbe82613f57565b604082019050919050565b60006020820190508181036000830152613fe281613fa6565b9050919050565b7f4e465469636b65743a20726f79616c747920726563697069656e742063616e6e60008201527f6f74206265207a65726f20616464726573730000000000000000000000000000602082015250565b600061404560328361362c565b915061405082613fe9565b604082019050919050565b6000602082019050818103600083015261407481614038565b9050919050565b7f4e465469636b65743a207472616e736665722063616c6c6572206973206e6f7460008201527f206f776e6572206e6f7220617070726f76656400000000000000000000000000602082015250565b60006140d760338361362c565b91506140e28261407b565b604082019050919050565b60006020820190508181036000830152614106816140ca565b9050919050565b7f4e465469636b65743a207472616e736665722066726f6d20696e636f7272656360008201527f74206f776e657200000000000000000000000000000000000000000000000000602082015250565b600061416960278361362c565b91506141748261410d565b604082019050919050565b600060208201905081810360008301526141988161415c565b9050919050565b7f4e465469636b65743a2073616c652070726963652065786365656473206d617860008201527f696d756d20616c6c6f7765642070726963650000000000000000000000000000602082015250565b60006141fb60328361362c565b91506142068261419f565b604082019050919050565b6000602082019050818103600083015261422a816141ee565b9050919050565b7f4e465469636b65743a20696e73756666696369656e74207061796d656e740000600082015250565b6000614267601e8361362c565b915061427282614231565b602082019050919050565b600060208201905081810360008301526142968161425a565b9050919050565b7f4e487b7100000000000000000000000000000000000000000000000000000000600052601160045260246000fd5b60006142d7826135ed565b91506142e2836135ed565b92508282026142f0816135ed565b915082820484148315176143075761430661429d565b5b5092915050565b7f4e487b7100000000000000000000000000000000000000000000000000000000600052601260045260246000fd5b6000614348826135ed565b9150614353836135ed565b9250826143635761436261430e565b5b828204905092915050565b6000614379826135ed565b9150614384836135ed565b925082820390508181111561439c5761439b61429d565b5b92915050565b60006040820190506143b760008301856135f7565b6143c460208301846135f7565b9392505050565b60006143d6826135ed565b91507fffffffffffffffffffffffffffffffffffffffffffffffffffffffffffffffff82036144085761440761429d565b5b600182019050919050565b7f4e465469636b65743a20726f79616c7479206361702063616e6e6f742065786360008201527f6565642032352500000000000000000000000000000000000000000000000000602082015250565b600061446f60278361362c565b915061447a82614413565b604082019050919050565b6000602082019050818103600083015261449e81614462565b9050919050565b7f4e465469636b65743a2063616e6e6f74207472616e736665722075736564207460008201527f69636b6574000000000000000000000000000000000000000000000000000000602082015250565b600061450160258361362c565b915061450c826144a5565b604082019050919050565b60006020820190508181036000830152614530816144f4565b9050919050565b7f4e465469636b65743a207472616e73666572732072657374726963746564207460008201527f6f20617070726f766564206d61726b6574706c61636573000000000000000000602082015250565b600061459360378361362c565b915061459e82614537565b604082019050919050565b600060208201905081810360008301526145c281614586565b9050919050565b600081519050919050565b600082825260208201905092915050565b60006145f0826145c9565b6145fa81856145d4565b935061460a81856020860161363d565b61461381613667565b840191505092915050565b6000608082019050614633600083018761375e565b614640602083018661375e565b61464d60408301856135f7565b818103606083015261465f81846145e5565b905095945050505050565b6000815190506146798161355e565b92915050565b60006020828403121561469557614694613528565b5b60006146a38482850161466a565b91505092915050565b600081905092915050565b60006146c282613621565b6146cc81856146ac565b93506146dc81856020860161363d565b80840191505092915050565b60006146f482856146b7565b915061470082846146b7565b91508190509392505050565b60008190508160005260206000209050919050565b60006020601f8301049050919050565b600082821b905092915050565b60006008830261476e7fffffffffffffffffffffffffffffffffffffffffffffffffffffffffffffffff82614731565b6147788683614731565b95508019841693508086168417925050509392505050565b6000819050919050565b60006147b56147b06147ab846135ed565b614790565b6135ed565b9050919050565b6000819050919050565b6147cf8361479a565b6147e36147db826147bc565b84845461473e565b825550505050565b600090565b6147f86147eb565b6148038184846147c6565b505050565b5b818110156148275761481c6000826147f0565b600181019050614809565b5050565b601f82111561486c5761483d8161470c565b61484684614721565b81016020851015614855578190505b61486961486185614721565b830182614808565b50505b505050565b600082821c905092915050565b600061488f60001984600802614871565b1980831691505092915050565b60006148a8838361487e565b9150826002028217905092915050565b6148c182613621565b67ffffffffffffffff8111156148da576148d9613a78565b5b6148e48254613df1565b6148ef82828561482b565b600060209050601f8311600181146149225760008415614910578287015190505b61491a858261489c565b865550614982565b601f1984166149308661470c565b60005b8281101561495857848901518255600182019150602085019450602081019050614933565b868310156149755784890151614971601f89168261487e565b8355505b6001600288020188555050505b505050505050565b600060408201905061499f600083018561375e565b6149ac60208301846138aa565b9392505050565b60006040820190506149c8600083018561375e565b6149d560208301846135f7565b939250505056fea2646970667358221220b8a6fa30489608a1bbdf9f22d40aa562f995aa7fc1a99e683d2c3376ac7f815764736f6c63430008180033",
  "linkReferences": {},
  "deployedLinkReferences": {}
}